:100000009AEF03F00000000000EF00F00000000095
:0A0010000000000000000000F3D71C
:10001C00A2C4C9FFC7B002D00000FCD7C9CF00F002
:02002C001200C0
:10002E00F250026EF29E0500FF6A0150FE6E005005
:08003E00FD6E02BEF28E1200FD
:040046008B90120089
:10004A00400E04019925006E80C4E1FF81C4E2FFDD
:10005A0000C0E6FF7EC400F07FC401F0E3DF80C485
:10006A00E1FF81C4E2FF9DC4E6FF7EC400F07FC4C5
:10007A0001F0D8DF80C4E1FF81C4E2FF9CC4E6FF3F
:10008A007EC400F07FC401F0CDDF80C4E1FF81C4EB
:10009A00E2FF9BC4E6FF7EC400F07FC401F0C2DF2A
:1000AA0080C4E1FF81C4E2FF9AC4E6FF7EC400F087
:1000BA007FC401F0B7DF80C4E1FF81C4E2FF9EC4C0
:1000CA00E6FF7EC400F07FC401F0ACDF0401A06B40
:1000DA00A16B80C4E1FF81C4E2FFFF0EE66E7EC41D
:1000EA0000F07FC401F09EDF00C09FF40401A04B22
:1000FA00A12B800E0014016E0150000A07E0000EC9
:10010A00A15D02E1640EA05D01E2E3D79FC400F0A5
:02011A001200D1
:10011C008B8080C4E1FF81C4E2FFFF0EE66E7EC4DB
:0A012C0000F07FC401F07DDF120037
:0E013600ACB202D00000FCD794C4ADFF1200A2
:100144000401956B966B270E965D02E1100E955D8A
:10015400D8B09AD0000E000A02E1000E941915E1FD
:1001640070DF010E996F9A6B9B6B9C6B9D6BFF0EFE
:100174009E6F69DF00C097F4CFDF04019751000A36
:1001840003E16D6A006A82D07CD05BDF370E996F21
:100194009A6B9B6B9C6B9D6BFF0E9E6F54DF00C034
:1001A40097F4BADF04019751010AD8A469D049DF52
:1001B400290E996F000E9A6F000E9B6F000E9C6FB4
:1001C400400E9D6FFF0E9E6F3EDF00C097F4A4DFCC
:1001D40004019751000A53E1000E000A02E1020EE5
:1001E400941949E12EDF3A0E996F9A6B9B6B9C6BC5
:1001F4009D6BFF0E9E6F27DF00C097F480C4E1FF64
:1002040081C4E2FFFF0EE66E7EC400F07FC401F0FD
:100214000CDF00C098F480C4E1FF81C4E2FFFF0E4C
:10022400E66E7EC400F07FC401F0FFDE80C4E1FF0F
:1002340081C4E2FFFF0EE66E7EC400F07FC401F0CD
:10024400F4DE80C4E1FF81C4E2FFFF0EE66E7EC4EB
:1002540000F07FC401F0E9DE5FDF04019751000A7A
:1002640009E198AD03D0040E6D6E02D0030E6D6EDD
:10027400006A0CD004D0010E6D6E006A07D001D064
:0E02840003D0954B962B5FD7010E006E120033
:100292000401896B86C4E9FF87C4EAFFEECF88F4C4
:1002A2008851000A0EE088C494F444DF0401892BCB
:1002B20089518625E96E000E8721EA6EEECF88F419
:0402C200EFD7120060
:1002C6001C0E04017E6F000E7F6FA20E806F040E5F
:1002D600816FFF0E826FFF0E836FFF0E846FFF0E1E
:1002E600856F949A94969488C66A400EC76EC68A9D
:0202F6001200F4
:1002F8000900F5CFE6FF0006FBE10106F9E112006F
:10030800360E04017A6F010E7B6F940E7C6F040E1B
:100318007D6FFF0E6E6FFF0E6F6F000E706F000E19
:10032800716FFF0E726FFF0E736F000E746F000E09
:10033800756FFF0E766FFF0E776F000E786F000EE9
:10034800796FAC8A900EAB6E948E949C9EAA03D063
:08035800AECF00F0FBD712004C
:1003600072DE000E000A02E1040E6D1809E186C477
:100370008EF487C48FF488C490F489C491F414D0A7
:10038000090E006E86C48EF487C48FF488C490F47E
:1003900089C491F4005008E004018E378E918F37A4
:1003A00090379137FF0FF7D70401180E996F8EC45D
:1003B0009AF48FC49BF490C49CF491C49DF4FF0EF6
:1003C0009E6F43DE005204E0A9DE010E006E8BD06A
:1003D00080C4E1FF81C4E2FFFF0EE66E7EC400F040
:1003E0007FC401F024DE80C4E1FF81C4E2FFFF0E80
:1003F000E66E7EC400F07FC401F019DE80C4E1FF28
:1004000081C4E2FFFE0EE66E7EC400F07FC401F000
:100410000EDE04018C6B8D6B8D51010802E18C5155
:10042000FF0815E38C518A25E96E8D518B21EA6E08
:1004300080C4E1FF81C4E2FFEECFE6FF7EC400F09E
:100440007FC401F0F4DD04018C4B8D2BE5D780C413
:10045000E1FF81C4E2FFFF0EE66E7EC400F07FC4C0
:1004600001F0E5DD80C4E1FF81C4E2FFFF0EE66E2E
:100470007EC400F07FC401F0DADD80C4E1FF81C4F6
:10048000E2FFFF0EE66E7EC400F07FC401F0CFDD18
:1004900000C08CF4000E04018D6F1F0E8C15016ED0
:1004A0008DC402F0000E021601C08CF402C08DF45F
:1004B000000E021802E1050E011804E02FDE020E04
:1004C000006E11D080C4E1FF81C4E2FFFF0EE66E32
:1004D0007EC400F07FC401F0AADD0050FF0A01E0F5
:0804E000F1D71CDE006A1200D6
:1004E800AEDD000E000A02E1040E6D1809E186C4B3
:1004F8008EF487C48FF488C490F489C491F414D01E
:10050800090E006E86C48EF487C48FF488C490F4F4
:1005180089C491F4005008E004018E378E918F371A
:1005280090379137FF0FF7D70401110E996F8EC4DA
:100538009AF48FC49BF490C49CF491C49DF4FF0E6C
:100548009E6F7FDD005204E0E5DD010E006E4BD0AA
:1005580080C4E1FF81C4E2FFFF0EE66E7EC400F0B6
:100568007FC401F060DD0050FE0A01E0F1D704010C
:100578008C6B8D6B020E8D5D02E1000E8C5D1BE2B3
:100588008C518A25926F8D518B21936F80C4E1FF26
:1005980081C4E2FFFF0EE66E7EC400F07FC401F066
:1005A80042DD92C4E1FF93C4E2FF00C0E6FF04010C
:1005B8008C4B8D2BDFD780C4E1FF81C4E2FFFF0E97
:1005C800E66E7EC400F07FC401F02DDD80C4E1FF3B
:1005D80081C4E2FFFF0EE66E7EC400F07FC401F026
:0805E80022DD98DD006A12001B
:1005F000050E6D6E949092DD0401866B876B000E84
:10060000875D02E10A0E865D0FE280C4E1FF81C4CE
:10061000E2FFFF0EE66E7EC400F07FC401F007DD4E
:100620000401864B872BEBD70EDD996B9A6B9B6B86
:100630009C6B9D6B950E9E6F08DD00C088F46EDD8F
:1006400004018851010A03E0010E006E72D0FBDC48
:10065000080E996FAA0E9A6F010E9B6F000E9C6F89
:100660009D6F870E9E6FF1DC00C088F480C4E1FFAF
:1006700081C4E2FFFF0EE66E7EC400F07FC401F08D
:10068000D6DC80C4E1FF81C4E2FFFF0EE66E7EC4CB
:1006900000F07FC401F0CBDC80C4E1FF81C4E2FF45
:1006A000FF0EE66E7EC400F07FC401F0C0DC80C4A3
:1006B000E1FF81C4E2FFFF0EE66E7EC400F07FC45E
:1006C00001F0B5DC2BDD04018851010A08E0010EC0
:1006D000946F38DD005202E0946B34DD03D0020EDB
:1006E000946F30DD000E000A02E1050E6D1803E183
:1006F000020E006E1ED0000E000A02E1040E6D18FC
:1007000017E0A1DC100E996F000E9A6F020E9B6F1E
:10071000000E9C6F9D6FFF0E9E6F97DC00C088F4EB
:10072000FDDC04018851000A03E0030E006E01D0D5
:04073000006A120049
:100734006CEC04F0190EAF6EAC84E4DDC2DD450E42
:1007440002016E6F6E0E6F6F670E706F530E716FD6
:10075400680E726F610E736F640E746F790E756F2D
:10076400FF0E956E43DF005206E1430E866F000EC6
:10077400876F8DDD05D04D0E866F000E876F87DD88
:1007840083B02FD0450E02016E6F6E0E6F6F670E31
:10079400706F530E716F680E726F610E736F640E1B
:1007A400746F790E756F010E0401866F000E876FEA
:1007B400886F896F6E0E8A6F020E8B6FCFDD0052C9
:1007C40007E1350E0401866F000E876F60DD06D0E9
:1007D4000401150E866F000E876F59DD83B001D0BA
:1007E400FDD783B215D00401010E866F000E876F0A
:1007F400886F896F6E0E8A6F000E8B6F73DE6E0EBC
:100804000401866F000E876F42DD83B201D0FDD7ED
:1008140083B431D0450E02016E6F6E0E6F6F670E9A
:10082400706F690E716F730E726F6D0E736F610E60
:10083400746F690E756F6C0E756F010E0401866F0F
:10084400000E876F886F896F6E0E8A6F020E8B6F32
:1008540085DD005207E1270E0401866F000E876FC5
:1008640016DD06D004015B0E866F000E876F0FDD68
:0A08740083B401D0FDD784D7FFD76D
:1008D80010EE15F0590E006E010E016E7E0EF66ECA
:0E08E800080EF76E000EF86E7CEC01F01200A8
:10087E007772697465206E6F742073756363657328
:02088E007300F5
:0E089000777269746520737563636573730016
:0E089E00777269746520737563636573730008
:0A08AC00636F6E6E6563746564008F
:0E08B6006E6F7420636F6E6E65637465640010
:1008C4007772697465206E6F7420737563636573E2
:0208D4007300AF
:0108D6000021
:020000040030CA
:0D000100220F0EFF0181FF0FC00FE00F4026
:00000001FF
