:100000004CEF05F00000000000EF00F000000000E1
:0A0010000000000000000000F3D71C
:10001C008FC6C9FFC7B002D00000FCD7C9CF00F013
:02002C001200C0
:0A002E00030E0D6E0D2EFED712001A
:10003800F250026EF29E0500FF6A0150FE6E0050FB
:08004800FD6E02BEF28E1200F3
:0A005000EEDF8188ECDF81981200DA
:04005A000000120090
:04005E008B90120071
:100062007F0E06018615006E00C086F68194819689
:10007200BF0E001600C086F6008C00C086F600C0D7
:0600820083FFE5DF120020
:100088000B6A0A6A096A00500402F4CF09F0F3CF38
:1000980008F001500502F4CF0BF0F3CF0AF000503E
:1000A8000502F3500926F4500A22E86A0B2201508F
:1000B8000402F3500926F4500A22E86A0B2208C009
:1000C80000F009C001F00AC002F00BC003F01200F2
:1000D800400E06018625006E66C6E1FF67C6E2FF90
:1000E80000C0E6FF64C600F065C601F0A1DF66C681
:1000F800E1FF67C6E2FF8AC6E6FF64C600F065C690
:1001080001F096DF66C6E1FF67C6E2FF89C6E6FF33
:1001180064C600F065C601F08BDF66C6E1FF67C6FE
:10012800E2FF88C6E6FF64C600F065C601F080DF1E
:1001380066C6E1FF67C6E2FF87C6E6FF64C600F051
:1001480065C601F075DF66C6E1FF67C6E2FF8BC6CC
:10015800E6FF64C600F065C601F06ADF06018D6B34
:100168008E6B66C6E1FF67C6E2FFFF0EE66E64C6E9
:1001780000F065C601F05CDF00C08CF606018D4B0F
:100188008E2B800E0014016E0150000A07E0000E4D
:100198008E5D02E1640E8D5D01E2E3D78CC600F04E
:0201A800120043
:1001AA007F0E06018615016E01C086F601AC03D0EA
:0C01BA00818C819E02D0819C818E1200FD
:1001C600FF0E956E47DF46DF8184819881868188A0
:1001D6002BDF83CF86F6819881963CDF3BDF956ADD
:0601E60086C600F01200C5
:0E01EC0081988184819686C683FF2CDF1200E5
:1001FA0081948196B80E06018611836E24DF12005F
:10020A008B8066C6E1FF67C6E2FFFF0EE66E64C634
:0A021A0000F065C601F00BDF1200D2
:1002240006017D6B7E6B270E7E5D02E1100E7D5D07
:10023400D8B0A0D0000E000A02E1000E7C1916E12D
:100244000CDF010E866F876B886B896B8A6BFF0EE0
:100254008B6F40DF00C07FF6D6DF06017F51000AB6
:1002640004E10401576B006A120080D0F6DE370EF9
:100274000601866F876B886B896B8A6BFF0E8B6FA9
:1002840029DF00C07FF6BFDF06017F51010AD8A431
:100294006CD0E3DE290E866F000E876F000E886F28
:1002A400000E896F400E8A6FFF0E8B6F13DF00C044
:1002B4007FF6A9DF06017F51000A56E1000E000A0D
:1002C40002E1020E7C194BE1C8DE3A0E866F876BA1
:1002D400886B896B8A6BFF0E8B6FFCDE00C07FF628
:1002E40066C6E1FF67C6E2FFFF0EE66E64C600F075
:1002F40065C601F09FDE00C080F666C6E1FF67C6F2
:10030400E2FFFF0EE66E64C600F065C601F092DE01
:1003140066C6E1FF67C6E2FFFF0EE66E64C600F044
:1003240065C601F087DE66C6E1FF67C6E2FFFF0E21
:10033400E66E64C600F065C601F07CDE64DF06018B
:100344007F51000A0BE180AD04D0040E0401576F05
:1003540003D00401030E576F006A120005D0040194
:10036400010E576F006A120001D004D006017D4BC4
:0A0374007E2B59D7010E006E120017
:10037E0006017E510708D8A0120004015E51060145
:10038E007C5D006E5FC401F0000E01565DC404F08A
:10039E00000E056E72DE00C084F601C085F67DC6C5
:1003AE0086F658DE7EC686F621DF806B04015D512F
:1003BE000601805D4FE27D517F08D8A012007DC6F8
:1003CE0086F6ECDE7EC686F611DF7DC686F642DE4A
:1003DE00F3DE00C081F6F0DE00C081F67DC686F643
:1003EE00DDDE7EC686F602DF7DC686F633DE8451FE
:1003FE0004015825F66E0601855104015921F76E48
:10040E00000E060185BFFF0E04015A21F86E090089
:10041E00F5CF00F000C082F60601844B852B001C40
:10042E00836F09D083C681F60FD082C681F60CD0B9
:10043E008251811B09D07F51000AF4E07F51010ADD
:10044E00F4E07F51020AF4E081C686F6C8DE7D2B09
:10045E00802BACD77DC686F6A1DE7EC686F6C6DEBE
:10046E007DC686F6F7DDFF0E826F836B0CD082C6DB
:10047E0081F682C686F6B3DE0CD083C681F683C6BD
:10048E0086F6ADDE06D07F51000AF1E07F51010AFB
:04049E00F4E0120074
:1004A200819C818E0601706B705107080EE370C645
:1004B20086F6A2DE6F6B6F513F0805E36EC686F6C5
:1004C20094DE6F2BF8D7702BEFD7819E818C706BE7
:1004D200705107080EE370C686F68EDE6F6B6F51A1
:1004E2003F0805E36EC686F680DE6F2BF8D7702BC9
:0404F200EFD712002E
:1004F60004015C6B939A939893949396939C939E22
:10050600819A956A81948196819C818E818A3F0E1B
:10051600836E9BDDC00E836E98DD818C819E3F0EBF
:0C052600836E93DDC00E836E90DD12002A
:100532000900F5CFE6FF0006FBE10106F9E1120032
:100542001C0E0601646F000E656F8F0E666F060E3D
:10055200676FFF0E0401606FFF0E616FFF0E626F27
:10056200FF0E636F949E93929380C66A400EC76E8D
:04057200C68A120023
:10057600000E06016E5D0AE36E517F0807E3000E6A
:100586006F5D04E36F513F0801E301D012006EC6B0
:1005960086F608DE6FC686F68633869F8633869F86
:1005A6008633869F27DE6EC686F658DD09DE00C0D6
:1005B60073F606DE00C073F66FC686F68633869F30
:1005C6008633869F8633869F15DE6EC686F646DDA3
:1005D600070E6F15006E00C071F600C001F0010E27
:1005E600006E015004E000360090FF0FFBD700C0FC
:1005F60071F6001C726F09D0725173170FD07151CA
:1006060073130CD07151731B09D07051000AF4E0BA
:100616007051010AF4E07051020AF4E073C686F6DE
:04062600E2DD1200FF
:10062A0019DD000E000A03E1040E0401571909E15D
:10063A006EC676F66FC677F670C678F671C679F624
:10064A0014D0090E006E6EC676F66FC677F670C6BF
:10065A0078F671C679F6005008E006017637769189
:10066A00773778377937FF0FF7D70601180E866F75
:10067A0076C687F677C688F678C689F679C68AF680
:10068A00FF0E8B6F24DD005204E0BADD010E006E0E
:10069A00120066C6E1FF67C6E2FFFF0EE66E64C699
:1006AA0000F065C601F0C3DC66C6E1FF67C6E2FF7B
:1006BA00FF0EE66E64C600F065C601F0B8DC66C6D9
:1006CA00E1FF67C6E2FFFE0EE66E64C600F065C68D
:1006DA0001F0ADDC0601746B756B7551010802E11E
:1006EA007451FF0815E374517225E96E755173212F
:1006FA00EA6E66C6E1FF67C6E2FFEECFE6FF64C6B2
:10070A0000F065C601F093DC0601744B752BE5D742
:10071A0066C6E1FF67C6E2FFFF0EE66E64C600F03A
:10072A0065C601F084DC66C6E1FF67C6E2FFFF0E1C
:10073A00E66E64C600F065C601F079DC66C6E1FFC4
:10074A0067C6E2FFFF0EE66E64C600F065C601F0FA
:10075A006EDC00C074F6000E0601756F1F0E74156C
:10076A00016E75C602F0000E021601C074F602C0D0
:10077A0075F6000E021802E1050E011804E040DDCC
:10078A00020E006E120066C6E1FF67C6E2FFFF0EA8
:10079A00E66E64C600F065C601F049DC0050FF0A47
:0A07AA0001E0F1D72DDD006A120016
:1007B4000601736B04015C51000A0EE1050E5D6FC6
:1007C400070E5B6F970E586F110E596F000E5A6F1C
:1007D400200E5E6F000E5F6F060173516E25E96E89
:1007E400000E6F21EA6EEE5218E073516E25E96E29
:1007F400000E6F21EA6EEECF7CF670C67DF671C6F0
:100804007EF672C67FF6B9DD04015D51010F006EFC
:0C081400005006017027732BDFD7120084
:10082000050E0401576F9490F0DC06016E6B6F6B40
:10083000000E6F5D02E10A0E6E5D10E266C6E1FF1A
:1008400067C6E2FFFF0EE66E64C600F065C601F003
:100850001CEC00F006016E4B6F2BEAD700DC866BB8
:10086000876B886B896B8A6B950E8B6F35DC00C04C
:1008700070F6CBDC06017051010A03E0010E006E38
:1008800012002FEC00F0080E866FAA0E876F010E83
:10089000886F000E896F8A6F870E8B6F1DDC00C01A
:1008A00070F666C6E1FF67C6E2FFFF0EE66E64C63D
:1008B00000F065C601F01CEC00F066C6E1FF67C6FB
:1008C000E2FFFF0EE66E64C600F065C601F01CECA8
:1008D00000F066C6E1FF67C6E2FFFF0EE66E64C683
:1008E00000F065C601F01CEC00F066C6E1FF67C6CB
:1008F000E2FFFF0EE66E64C600F065C601F01CEC78
:1009000000F083DC06017051010A09E0010E7C6FE2
:1009100089DC005203E006017C6B84DC04D0020E0B
:1009200006017C6F7FDC000E000A03E1050E040166
:10093000571903E1020E006E1200000E000A03E1D7
:100940000401040E57191AE02FEC00F0100E0601F6
:10095000866F000E876F020E886F000E896F8A6F98
:10096000FF0E8B6F6CEC00F000C070F64EDC0601E1
:100970007051000A03E0030E006E1200006A1200BC
:100980002FEC00F0000E000A03E1040E04015719D9
:1009900009E16EC676F66FC677F670C678F671C650
:1009A00079F614D0090E006E6EC676F66FC677F62D
:1009B00070C678F671C679F6005008E00601763701
:1009C0007691773778377937FF0FF7D70601110E11
:1009D000866F76C687F677C688F678C689F679C6B2
:1009E0008AF6FF0E8B6F6CEC00F0005204E00DDC19
:1009F000010E006E120066C6E1FF67C6E2FFFF0E41
:100A0000E66E64C600F065C601F01CEC00F0005014
:100A1000FE0A01E0F0D70601746B756B020E755D7E
:100A200002E1000E745D1CE2745172257A6F7551FB
:100A300073217B6F66C6E1FF67C6E2FFFF0EE66EBD
:100A400064C600F065C601F01CEC00F07AC6E1FF58
:100A50007BC6E2FF00C0E6FF0601744B752BDED7B4
:100A600066C6E1FF67C6E2FFFF0EE66E64C600F0F1
:100A700065C601F01CEC00F066C6E1FF67C6E2FF48
:100A8000FF0EE66E64C600F065C601F01CEC00F0D7
:080A900005EC01F0006A120000
:100A9800BCEC09F052DD2BDDFF0E06016E6FFDDCAC
:100AA8006A6B6B6B000E6A6F050E6B6F000E6C6FD6
:100AB800050E6D6F0601800E6A25016E000E6B2112
:100AC800026E02506D5D02E101506C5D10E26CC671
:100AD8006EF6010E6F6F570E6C25E96E000E6D21D4
:100AE800EA6EEECF70F643DD6C4B6D2BE3D7060E46
:100AF8000B6E130E0C6EAD0E0D6E0D2EFED70C2E5A
:100B0800FCD70B2EFAD70000000086DE00C068F67E
:100B18000052D8A4FDD006016E6BBFDC4C0E6E6F80
:100B2800000E6F6F010E706F010E716F020E726F03
:100B38003DDE06016853D8A4EAD06EDE00C068F630
:100B480082B48ED006016A6B6B6B020E6B5D02E19C
:100B5800000E6A5D11E2640E6A25E16E040E6B21D7
:100B6800E26E570E6A25E96E000E6B21EA6EEECF33
:100B7800E6FF6A4B6B2BE9D7010E6E6F000E6F6FA5
:100B8800706F716F640E726F040E736F4ADD00C070
:100B980069F606016A6B6B6B020E6B5D02E1000E73
:100BA8006A5D17E2640E6A25E16E040E6B21E26E3F
:100BB800000E6A25006E020E6B21016E570E00248E
:100BC800E96E000E0120EA6EEECFE6FF6A4B6B2B52
:100BD800E3D7020E6E6F000E6F6F706F716F640E49
:100BE800726F040E736F1DDD00C069F600522AE1B2
:100BF80006016E6B52DC400E6E6F000E6F6F010EB9
:100C0800706F010E716F020E726FD0DD0B0E0B6EDE
:100C1800260E0C6E5D0E0D6E0D2EFED70C2EFCD71B
:100C28000B2EFAD7000000006E6B37DC150E6E6FC6
:100C3800000E6F6F010E706F010E716F020E726FF2
:100C4800B5DD0ED006016E6B28DC3A0E6E6F000E15
:100C58006F6F010E706F010E716F020E726FA6DD5D
:100C680082B254D00601010E6E6F000E6F6F706F66
:100C7800716F640E726F040E736F7EDE00C069F6CA
:100C880006016A6B6B6B020E6B5D02E1000E6A5D1A
:100C980003E26A4B6B2BF7D7020E6E6F000E6F6F75
:100CA800706F716F640E726F040E736FBADC00C0E0
:100CB80069F606016A6B6B6B020E6B5D02E1000E52
:100CC8006A5D03E26A4B6B2BF7D769531FE16E6BC2
:100CD80051EC02F00B0E0B6E260E0C6E5D0E0D6EB7
:100CE8000D2EFED70C2EFCD70B2EFAD700000000D5
:100CF8006E6B51EC02F0200E6E6F000E6F6F010EDE
:100D0800706F010E716F020E726F50DD12D70FD027
:100D180006016E6B51EC02F02B0E6E6F000E6F6FBA
:100D2800010E706F010E716F020E726F3FDD020EC1
:100D38000B6E040E0C6EBA0E0D6E0D2EFED70C2E19
:0C0D4800FCD70B2EFAD70000E0D6FFD736
:1013780010EE15F0430E006E050E016E540EF66E5B
:0E1388000D0EF76E000EF86E99EC02F01200DA
:0B0D5400436F6E6E65637465642100E0
:0B0D5F00436F6E6E65637465642100D5
:0F0D6A004E6F7420436F6E6E6563746564210075
:060D79004572726F72006A
:0C0D7F005772697465205375636321008E
:0B0D8B00436F6E6E65637465642100A9
:100D9600000000000000000000000000000000004D
:100DA600000000000000000000000000000000003D
:100DB600000000000000000000000000000000002D
:100DC600000000000000000000000000000000001D
:100DD600000000000000000000000000000000000D
:100DE60000000000000000000000000000000000FD
:100DF60000000000000000000000000000000000ED
:100E060000000000000000000000000000000000DC
:100E160000000000000000000000000000000000CC
:100E2600000000000000000000000000001CFCFCA8
:100E3600FCFEFEFEFEFEFFFEFCF8F0C08000000099
:100E46000000000080C0C0E0F0F8F8FCFEFCFCFCEE
:100E5600F8F8F0F03000000000000000000000008C
:100E6600000000000000000000000000000000007C
:100E7600000000000000000000000000000000006C
:100E8600000000000000000000000000000000005C
:100E9600000000000000000080C0F0F8F8F8F0F054
:100EA600F0F0F0F0E0E0E0E0E0E0F0F0F8F87F7F6E
:100EB6003F3F1F1F1F0F0F0F0F0F0F0707070707D4
:100EC6000F0F0F0F0F0F1F1F1F3F3F7F7FFFFF7F6C
:100ED6003F1F1F010000000000000000000000008E
:100EE600000000100010000000000000000000805C
:100EF60000000000000000000000000000000000EC
:100F060000000000000000000000000000000000DB
:100F160000000000000000030307070F1F1F3F3FEC
:100F2600FFFFFFFFFFFFFF7F1F0703010000000019
:100F360000000080C0C0C0C0C0C0C0C0C0C080002B
:100F4600000000000000000000000000000000009B
:100F5600000000000000000000000000000000008B
:100F660000305050A030A0A8C0C0C08000000000D3
:100F76000102000000000000000000000000000068
:100F8600000000000000000000000000000000005B
:100F96000000000000808080C0C0C0E0E0E0F0F00B
:100FA600FFFFFFFFFFFFFFC0000000000000000082
:100FB600000000FFFFFF0D0C0C0C0C0DFFFF03F8EB
:100FC600FCFC1C0C0C0C0C0C0CECFCFCFCFCFC2CBB
:100FD600FCFCF800FCFCFCB0B0B0B0F0F0E00000A7
:100FE6000000000080FFFE000000000000FCFEEE96
:100FF600D6DEDEDEDEDEDC08FCFEFEC6C6C6C6C605
:10100600C6C684FEFEFE30303030F0F0F0E0000060
:10101600000000000001071F3F3F3F3F3F3F3F3FAB
:101026003F3F3F3F3F3F7F7FFFFEF8F8F0E0C0C005
:101036008080800101010000000000010171505113
:101046005151607050507060701071711171515033
:10105600617111107171517121710101010000302E
:10106600706070707050507070704040707070108A
:1010760010000000000070707040703070505070AA
:10108600607010107070606020700000000000003A
:10109600000000000000000000000000000000004A
:1010A60000000000000000C0F8FFFFFFFFFFFFFF89
:1010B600FFFFFFFFFF7F3E1E0E0600000000000040
:1010C600000000000000000000000000000000001A
:1010D600000000000000000000000000000000000A
:1010E60000000000000000000000000000000000FA
:1010F60000000000000000000000000000000000EA
:1011060000000000000000000000000000000000D9
:1011160000000000000000000000000000000000C9
:1011260000000000000000010103030707070F0F7E
:10113600070301000000000000000000000000009E
:101146000000000000000000000000000000000099
:101156000000000000000000000000000000000089
:101166000000000000000000000000000000000079
:101176000000000000000000000000000000000069
:101186000000000000000000000000000000000059
:011196000058
:10119700000000000000005F0000000700070014C7
:1011A7007F147F14242A7F2A122313086462364986
:1011B7005522500005030000001C22410000412277
:1011C7001C00082A1C2A0808083E0808005030009E
:1011D7000008080808080030300000201008040242
:1011E7003E5149453E00427F4000426151494621F8
:1011F70041454B311814127F1027454545393C4A64
:1012070049493001710905033649494936064949B3
:10121700291E00363600000056360000000814224A
:101227004114141414144122140800020151090630
:10123700324979413E7E1111117E7F494949363E37
:10124700414141227F4141221C7F494949417F0950
:101257000901013E414151327F0808087F00417F63
:1012670041002040413F017F081422417F40404018
:10127700407F0204027F7F0408107F3E4141413EC8
:101287007F090909063E4151215E7F091929464612
:101297004949493101017F01013F4040403F1F203B
:1012A70040201F7F2018207F6314081463030478ED
:1012B7000403615149454300007F4141020408107E
:1012C7002041417F000004020102044040404040A9
:1012D700000102040020545454787F4844443838AD
:1012E70044444420384444487F3854545418087EB2
:1012F700090102081454543C7F0804047800447D13
:1013070040002040443D00007F10284400417F40BA
:10131700007C041804787C08040478384444443872
:101327007C14141408081414187C7C080404084856
:1013370054545420043F4440203C4040207C1C200F
:1013470040201C3C4030403C44281028440C50505E
:10135700503C4464544C44000836410000007F0070
:1013670000004136080008082A1C08081C2A08083B
:020000040030CA
:0E000000000E1F1EFF8181FF0FC00FE00F409A
:00000001FF
